:100000000C94F0040C94FD220C94D6220C94AF2294
:100010000C9488220C9418050C9418050C946122F9
:100020000C9418050C94F0210C94E61D0C94551EAC
:100030000C9418050C9418050C9418050C941805CC
:100040000C9418050C9418050C9418050C941805BC
:100050000C9418050C9418050C9418050C94872022
:100060000C9418050C9418050C9418050C9418059C
:100070000C9418050C9418050C9418050C9418058C
:100080000C9418050C9418050C9418050C9418057C
:100090000C94D1200C9418050C9418050C94180598
:1000A0000C9418050C9418050C941805446563000D
:1000B0004E6F76004F6374005365700041756700A2
:1000C0004A756C004A756E004D617900417072008E
:1000D0004D617200466562000000600C701C783C47
:1000E0007C7C7EFC3FF83FF81FF007C0000000005A
:1000F00000000000000000004004F01EF83EFEFE7C
:100100007FFC7FFC3FF80EE00000000000000000D4
:100110000000000000000000E00EFC7EFFFE7FFCFF
:100120003FF80EE0000000000000000000000000AA
:10013000000000000000F01EFFFEFFFE7FFC1EF02E
:1001400000000000000000000000000000000000AF
:10015000000000000FE0FFFEFFFE7FFC1EF000002D
:10016000000000000000000000000000000000008F
:1001700003800FE07FFCFFFE7EFC1C70000000008F
:1001800000000000000000000000000001000380EB
:100190000FE01FF07FFC7EFC3C78000000000000B8
:1001A00000000000000000000100038007C007C03D
:1001B0000FE01FF00EE00000000000000000000053
:1001C000000000000100010003800380038007C0DD
:1001D000028000000000000000000000000000009D
:1001E0000100010001000100010001000000000009
:1001F00000000000000000000440128008100020F1
:1002000030000018080010200290044003C00FF0D6
:100210001FF83FFC39E430C073CE73CE79E67FFE21
:100220007FFE7FFE7BDE318C03C00FF01FF83FFCAA
:1002300039E430C073CE73CE79E67FFE7FFE7FFE59
:100240006E76466203E00FF81FFC1FFC3FF03F8014
:100250003E003F803FF01FFC1FFC0FF803E003E06F
:100260000FE01FE01FC03F803F003E003F003F8087
:100270001FC01FE00FE003E003E00FF81FFC1FFCAE
:100280003FFE3FFE3FFE3FFE3FFE1FFC1FFC0FF800
:1002900003E0616D00706D00253032753A25303213
:1002A000750000000000003E5B4F5B3E3E6B4F6BF5
:1002B0003E1C3E7C3E1C183C7E3C181C577D571C47
:1002C0001C5E7F5E1C00183C1800FFE7C3E7FF00C0
:1002D00018241800FFE7DBE7FF30483A060E26290E
:1002E000792926407F050507407F05253F5A3CE7D1
:1002F0003C5A7F3E1C1C08081C1C3E7F14227F2297
:10030000145F5F005F5F06097F017F006689956A61
:10031000606060606094A2FFA29408047E040810EC
:10032000207E201008082A1C08081C2A08081E1015
:100330001010100C1E0C1E0C30383E3830060E3ECD
:100340000E06000000000000005F0000000700072C
:1003500000147F147F14242A7F2A12231308646256
:1003600036495620500008070300001C22410000B7
:1003700041221C002A1C7F1C2A08083E0808008015
:1003800070300008080808080000606000201008AD
:1003900004023E5149453E00427F400072494949AE
:1003A000462141494D331814127F102745454539E0
:1003B0003C4A4949314121110907364949493646E4
:1003C0004949291E000014000000403400000008C4
:1003D0001422411414141414004122140802015967
:1003E00009063E415D594E7C1211127C7F494949F4
:1003F000363E414141227F4141413E7F4949494189
:100400007F090909013E414151737F0808087F00B7
:10041000417F41002040413F017F081422417F403D
:100420004040407F021C027F7F0408107F3E414114
:10043000413E7F090909063E4151215E7F09192984
:1004400046264949493203017F01033F4040403F6E
:100450001F2040201F3F4038403F631408146303AF
:10046000047804036159494D43007F41414102042E
:10047000081020004141417F040201020440404035
:100480004040000307080020545478407F2844442B
:10049000383844444428384444287F385454541845
:1004A00000087E090218A4A49C787F080404780040
:1004B000447D40002040403D007F10284400004122
:1004C0007F40007C047804787C0804047838444435
:1004D0004438FC1824241818242418FC7C0804042C
:1004E00008485454542404043F44243C4040207C95
:1004F0001C2040201C3C4030403C44281028444CE8
:100500009090907C4464544C4400083641000000B4
:10051000770000004136080002010204023C262355
:10052000263C1EA1A161123A4040207A385454550D
:1005300059215555794122545478422155547840D7
:1005400020545579400C1E5272123955555559395F
:100550005454545939555454580000457C410002B4
:10056000457D420001457C407D1211127DF0282519
:1005700028F07C545545002054547C547C0A097F53
:100580004932494949323A4444443A324A48483067
:100590003A4141217A3A42402078009DA0A07D3D19
:1005A0004242423D3D4040403D3C24FF2424487EA1
:1005B0004943662B2FFC2F2BFF0929F620C0887E8C
:1005C000090320545479410000447D413048484A91
:1005D00032384040227A007A0A0A727D0D19317D44
:1005E0002629292F28262929292630484D40203818
:1005F0000808080808080808382F10C8ACBA2F10D7
:100600002834FA00007B000008142A142222142A3D
:1006100014085500550055AA55AA55AAFF55FF556F
:10062000FF000000FF00101010FF00141414FF0062
:100630001010FF00FF1010F010F0141414FC001440
:1006400014F700FF0000FF00FF1414F404FC14145E
:1006500017101F10101F101F1414141F001010105B
:10066000F0000000001F101010101F10101010F0EC
:1006700010000000FF101010101010101010FF10CC
:10068000000000FF140000FF00FF00001F10170013
:1006900000FC04F414141710171414F404F40000EC
:1006A000FF00F714141414141414F700F71414149E
:1006B000171410101F101F141414F4141010F0103D
:1006C000F000001F101F0000001F14000000FC14A9
:1006D0000000F010F01010FF10FF141414FF14109D
:1006E00010101F00000000F010FFFFFFFFFFF0F0F0
:1006F000F0F0F0FFFFFF0000000000FFFF0F0F0F02
:100700000F0F3844443844FC4A4A4A347E020206F9
:1007100006027E027E0263554941633844443C042C
:10072000407E201E2006027E020299A5E7A5991CA4
:100730002A492A1C4C7201724C304A4D4D303048C7
:10074000784830BC625A463D3E494949007E010125
:10075000017E2A2A2A2A2A44445F444440514A44BA
:100760004040444A51400000FF0103E080FF000088
:1007700008086B6B083612362436060F090F060080
:100780000018180000001010003040FF0101001F89
:1007900001011E00191D1712003C3C3C3C000000EA
:1007A0000000000103070F1F3F7F0080C0E0F0F84A
:1007B000FCFE0000000200090F0000030401000C11
:1007C0000000000000000000000000000000000029
:1007D00000080B00020202000009040000010202EE
:1007E0000000052400100105240101010424020673
:1007F00005240600010705810310004009040100DB
:10080000020A0000000705020240000007058302FB
:100810004000000403090412010002EF02014041FC
:1008200023368000010102030141726475696E6F15
:10083000204C4C430041726475696E6F204C656FAB
:100840006E6172646F00070605040100080A0B0C54
:100850000D0900000000240027002A002D003000B0
:10086000DB40A4A62EAF2000A1C8D300408DAED59A
:1008700080A800000000250028002B002E00310079
:1008800026206D696331353900627920306D696BDE
:10089000657230005061636D616E20436C6F636BF5
:1008A0000031373A33343A3539004E6F76203235DD
:1008B00020323032300000000000230026002900E2
:1008C0002C002F000203010004060706040506079A
:1008D00006070301020004040404040304050202E1
:1008E00002020403020202020606060606060404C9
:1008F000020202040404080201104080401020405B
:100900008040800802040180402010020110801005
:10091000204040204261636B0044696D002A200042
:10092000427269676874002A2000427269676874BD
:100930006E657373004A616E004261636B005365BC
:10094000742044617465004261636B002530326439
:100950003A25303264005365742054696D65003166
:1009600032687200323468720031322F3234687269
:10097000206D6F6465004261636B005365742042B3
:1009800072696768746E657373005365742044619F
:100990007465005365742054696D65005365742057
:1009A00031322F323468206D6F6465005365747482
:1009B000696E6773002200FF2100253032643A25FA
:1009C000303264256300253032643A2530326400C9
:1009D0001F1C1F1E1F1E1F1F1E1F1E1F5923A22E5E
:1009E00011241FBECFEFDAE0DEBFCDBF11E0A0E0E3
:1009F000B1E0EEE5FAE602C005900D92A039B1072C
:100A0000D9F723E0A0E9B1E001C01D92A535B207F6
:100A1000E1F714E0CFEED4E004C02197FE010E947C
:100A2000D733CE3ED107C9F70E94B2240C942235A9
:100A30000C9400003F924F925F926F927F928F9240
:100A40009F92AF92BF92CF92DF92EF92FF920F935D
:100A50001F93CF93DF9300D000D0CDB7DEB79C8338
:100A60008B833B016A015901DC01ED91FC91028409
:100A7000F385E02D09952801B7E04B0E511C93E05A
:100A8000559447949A95E1F7C6018E0D9F1D9A8360
:100A90008983912C812C312CF12CE12CC70187709A
:100AA0009927330C892B59F4F70183E0F595E795E5
:100AB0008A95E1F7E80DF91DEA0DFB1D349037FE2C
:100AC00010C0AB81BC81ED91FC9111970484F58538
:100AD000E02D21E030E0A601B701660D771DCD01C4
:100AE0000995BFEFEB1AFB0A0E151F05B9F68FEF3C
:100AF000C81AD80A840C951CA981BA81CA16DB06CB
:100B000059F6AB81BC81ED91FC9111970688F7896C
:100B1000E02DCD010F900F900F900F90DF91CF91AE
:100B20001F910F91FF90EF90DF90CF90BF90AF900B
:100B30009F908F907F906F905F904F903F9009941F
:100B4000089591E090939202809391021092900206
:100B500010928F02089590918E0280918D022FEF56
:100B60003FEF981748F4E92FF0E0E359FD4F20815B
:100B700030E09F5F90938E02C901089590918E029C
:100B800080918D022FEF3FEF981748F4E92FF0E0A6
:100B9000E359FD4F208130E09F5F90938E02C901A1
:100BA0000895FC0180913C02882311F13FB7F8942D
:100BB00082E08093E9002091F200822F90E01816E5
:100BC000190614F481E090E0882339F0289844E66F
:100BD00040933B024091F1004083222339F0209161
:100BE000F200211103C02BE62093E8003FBF0895D7
:100BF0008FEF9FEF08952FB7F89483E08093E9007B
:100C00009091E800892F807295FF04C09091F200C6
:100C100080E4891B2FBF08958091330281110DC09C
:100C200082E080932F0284E080933002109232029F
:100C30001092310281E0809333028FE292E00895B6
:100C4000089508954091FB015091FC012091F90114
:100C50003091FA0142175307B4F49091E80095706F
:100C6000E1F39091E80092FD19C08093F10080912A
:100C7000FB019091FC0101968F739927892B19F440
:100C80008EEF8093E8008091FB019091FC0101962A
:100C90009093FC018093FB0181E0089580E008952A
:100CA000DF92EF92FF920F931F93CF93DF93D82E93
:100CB0008A01EB017B01E40EF51ECE15DF0559F02C
:100CC000D7FE12C0FE0184910E9422062196811156
:100CD000F4CF0FEF1FEFC801DF91CF911F910F915C
:100CE000FF90EF90DF9008958881EECF0F931F93D0
:100CF000CF93DF931F92CDB7DEB782E0898342E4C2
:100D000050E061ED77E080E80E9450060E940C06FA
:100D1000DC0112960D911C910115110589F0D80185
:100D2000ED91FC910280F381E02DBE016F5F7F4F5A
:100D3000C801099597FD04C0F80100851185ECCF25
:100D400089810F90DF91CF911F910F91089561508C
:100D500030F02091F100FC0120830196F8CF289813
:100D600084E680933B020895EF92FF920F931F93C6
:100D7000CF93DF938C017B01D0E0C0E0F701EC0F53
:100D8000FD1F6491662361F0D801ED91FC91019003
:100D9000F081E02DC8010995892B11F02196EECF45
:100DA000CE01DF91CF911F910F91FF90EF900895A9
:100DB000AF92BF92CF92DF92EF92FF920F931F9369
:100DC000CF93DF936C017B018B01040F151FEB01A7
:100DD0005E01AE18BF08C017D10759F06991D6015E
:100DE000ED91FC910190F081E02DC6010995892BD0
:100DF00079F7C501DF91CF911F910F91FF90EF908F
:100E0000DF90CF90BF90AF900895CF93DF931F9264
:100E1000CDB7DEB76983DC01ED91FC910280F381EF
:100E2000E02D41E050E0BE016F5F7F4F09950F90CC
:100E3000DF91CF91089583E08093E9008091F200E3
:100E4000882319F08AE38093E80008950E94FB0547
:100E500090E00895CF93DF931F92CDB7DEB7FC01EA
:100E60008485958597FD08C02FEF3FEF3587248750
:100E70000F90DF91CF910895CE0101960E94D10588
:100E8000019719F4898190E0F3CF8FEF9FEFF0CFB6
:100E90000F931F93CF93DF931F92CDB7DEB78C01D3
:100EA000FC018485958597FF0BC0CE0101960E94B9
:100EB000D105019771F4898190E0F80195878487C5
:100EC000F801848595850F90DF91CF911F910F9147
:100ED00008958FEF9FEFF1CFFC018485958597FDF5
:100EE0000BC09FB7F89482E08093E9008091F200F4
:100EF0009FBF90E0019608959FB7F89482E0809399
:100F0000E9008091F2009FBF90E0089581508F30FA
:100F100008F047C0E82FF0E0E057F84F0C94D733C3
:100F2000AD07B1079F07A507A907D107D107D107CB
:100F3000B407BA07BE07C207C807D107CC0780911C
:100F400080008F77809380000895809180008F7D4E
:100F5000F9CF80918000877FF5CF84B58F7784BDEE
:100F6000089584B58F7DFBCF809190008F7780931B
:100F700090000895809190008F7DF9CF809190002E
:100F8000877FF5CF8091C0008F778093C000089550
:100F90008091C0008F7DF9CF8091C200877F8093C0
:100FA000C2000895CF93DF93282F30E0F901EE546B
:100FB000F84F8491F901EB50F74FD491F901EA52BF
:100FC000F74FC491CC23A1F081110E948607EC2F2A
:100FD000F0E0EE0FFF1FEA54F74FA591B491EC91AA
:100FE000ED2381E090E009F480E0DF91CF91089556
:100FF00080E090E0FACF1F93CF93DF93282F30E06B
:10100000F901EE54F84F8491F901EB50F74FD49168
:10101000F901EA52F74FC491CC23A9F0162F8111A0
:101020000E948607EC2FF0E0EE0FFF1FEE58F74FFF
:10103000A591B4918FB7F894EC91111108C0D09597
:10104000DE23DC938FBFDF91CF911F910895DE2BBC
:10105000F8CFCF93DF9390E0FC01EB50F74F249152
:101060008A52974FFC0184918823D1F090E0880F39
:10107000991FFC01EE5AF74FA591B491FC01EE586F
:10108000F74FC591D491623071F49FB7F8943C91B9
:10109000822F809583238C93E8812E2B28839FBFFA
:1010A000DF91CF9108958FB7F894EC912E2B2C936C
:1010B0008FBFF6CF3FB7F8948091F5019091F6017C
:1010C000A091F701B091F80126B5A89B05C02F3F6C
:1010D00019F00196A11DB11D3FBFBA2FA92F982F5E
:1010E0008827BC01CD01620F711D811D911D42E059
:1010F000660F771F881F991F4A95D1F708958F9221
:101100009F92AF92BF92CF92DF92EF92FF924B01EC
:101110005C010E945A086B017C010E945A086C19FC
:101120007D098E099F09683E734081059105A8F3EA
:1011300021E0821A9108A108B10888EEC80E83E068
:10114000D81EE11CF11C81149104A104B10429F7FB
:10115000FF90EF90DF90CF90BF90AF909F908F90D7
:1011600008958F929F92AF92BF92CF92DF92EF92AB
:10117000FF920F931F93CF93DF936C017B018A0142
:1011800080910B01882309F45CC080913C02882384
:1011900009F457C08091FF0180FF05C08091E000F5
:1011A00082608093E000E801B12C8AEFA82E93E0E2
:1011B000892E2AE3922E209711F4BB20D9F10E94A8
:1011C000FB0581110AC0AA94AA20D9F161E070E060
:1011D00080E090E00E947F08EECF8C171D0611F092
:1011E0000CF08C2F9FB7F8948092E9002091E800D2
:1011F00025FD02C09FBFDFCF282F30E0C21BD30BDD
:10120000F701815020F041914093F100FACFE20EB6
:10121000F31EBB2021F09092E800B12CEBCF80911F
:10122000E80085FDE7CF9092E800BB24B3942097B7
:1012300009F3F3CF5D9884E68093FE011016110642
:101240003CF081E090E0F6019383828310E000E0BF
:10125000C801DF91CF911F910F91FF90EF90DF9028
:10126000CF90BF90AF909F908F900895EF92FF9294
:101270000F931F93CF93DF93EC01EC80FD806E15ED
:101280007F050CF070C057FF04C0240F351F50E0DD
:1012900040E08E819F81FA01E20FF31F8E179F07B6
:1012A0001CF49C01241B350B121613060CF05BC0BA
:1012B000922F842F8695869586958E9DD0018F9D41
:1012C000B00D11246A0F7B1FAE8DBF8DA60FB71F07
:1012D000477049F188E0841B482F682F70E0FB01BC
:1012E000E655F84FE491281708F063C0621B7109B6
:1012F0002FEF30E002C0359527956A95E2F7E2239B
:101300000130110539F0B0F10230110561F58C9111
:10131000E82702C08C91E82BEC93941720F12C81E4
:101320003D81A20FB31FE92FE41BE83078F00230B3
:10133000110521F58E2F9C9190959C932C813D81D8
:10134000A20FB31F88508830B0F7E770EE2359F032
:10135000F0E0EE55F84FE49101301105F9F010F18D
:101360000230110519F1DF91CF911F910F91FF907C
:10137000EF900895E0958C91E823CECF81E00115A0
:10138000110509F480E081959E2F8C932C813D817D
:10139000A20FB31F98509830C0F7D7CF8C91E82B8D
:1013A000EC93E1CFE0958C91E823FACF8C91E8277C
:1013B000F7CF0130110509F4ADCFE0F2023011058D
:1013C00009F4A5CFAE0DBF1DAECF0F931F93CF93E2
:1013D000DF9377FF04C0260F371F70E060E0DC0169
:1013E0001496CD91DC91FB01E20FF31FCE17DF07BE
:1013F0001CF49E01261B370B121613064CF5FA013E
:1014000057FD3796A3E0F595E795AA95E1F7EC9F90
:10141000D001ED9FB00DFC9FB00D11246A0F7B1F12
:10142000DC015E96ED91FC91E60FF71F47705527A2
:1014300081E090E001C0880F4A95EAF7482F01301B
:10144000110559F0A8F02E0F3F1F02301105E1F0F1
:10145000DF91CF911F910F9108952E0F3F1FE2173B
:10146000F307B1F38191DF011197842B8C93F7CFB0
:1014700080952E0F3F1FE217F30751F39191DF0183
:10148000119798239C93F7CFE217F30709F3819103
:10149000DF01119784278C93F7CF0F931F93FA01E5
:1014A000DC0155964C9155974230E9F04330A1F15B
:1014B000413061F514964D915C91DA01AE1BBF0B82
:1014C000FD01E21BF30B77FD0BC0DC0116964D917D
:1014D0005C916417750724F4AB01BF010E94E50914
:1014E0001F910F91089514964D915C91DA01A61BFE
:1014F000B70BBD0161507109DC0116964D915C91ED
:10150000DA01AE1BBF0BFD01E21BF30B77FDE8CF49
:10151000AF010E943609E4CF16964D915C91DA0135
:10152000A61BB70BBD0161507109CDCF0F931F935F
:10153000FA01DC0155964C9155974230A9F04330A1
:1015400091F1413019F514964D915C91DA01AE1B81
:10155000BF0BFD013197F7FD04C0AB01BF010E9435
:1015600036091F910F91089514964D915C91DA01FF
:10157000A61BB70BBD01DC0116964D915C91DA01FB
:10158000AE1BBF0BFD013197621B730BF7FDE9CF5B
:10159000DC0116964D915C91E417F50714F7AF0145
:1015A0000E94E509DECF16964D915C91DA01A61BEB
:1015B000B70BBD01621B730BCECFFC0177FD64C07E
:1015C00080859185681779070CF05EC057FD5CC077
:1015D00082859385481759070CF056C0858982305B
:1015E000B1F0833029F1813041F484819581841BED
:1015F000950BAB01BC01615071092130310509F136
:1016000008F443C02230310509F463C00895848191
:101610009581DC01A61BB70BBD0161507109868164
:101620009781DC01A41BB50BAD0141505109E5CFF9
:1016300086819781861B970BBA01AC0141505109F5
:10164000DCCFCA0157FD0796A3E095958795AA952B
:10165000E1F7A481B5818A9F90018B9F300D9A9FFD
:10166000300D1124620F731F068CF78DE02DE60FED
:10167000F71F4770552721E030E001C0220F4A953F
:10168000EAF78081822B80830895CA0157FD07966F
:1016900033E0959587953A95E1F7A481B5818A9FC6
:1016A00090018B9F300D9A9F300D1124620F731F94
:1016B000068CF78DE02DE60FF71F4770552781E068
:1016C00090E001C0880F4A95EAF7809590818923C0
:1016D000DACFCA0157FD079623E0959587952A959D
:1016E000E1F7A481B5818A9F90018B9F300D9A9F6D
:1016F000300D1124620F731F068CF78DE02DE60F5D
:10170000F71F4770552721E030E001C0220F4A95AE
:10171000EAF780818227B7CF8EBD00000DB407FEA7
:10172000FDCF8EB5089508958CBD9DBD0895089593
:10173000FC016370658B84819581268137816130DE
:1017400039F0633029F091878087338722870895A5
:10175000318720879387828708952F923F924F92F7
:101760005F926F927F928F929F92AF92BF92CF9231
:10177000DF92EF92FF920F931F93CF93DF93CDB73A
:10178000DEB769970FB6F894DEBF0FBECDBF998F55
:10179000888F5B011A01D22E1F830E833701C98205
:1017A000DC0158962D913C9159972115310509F08E
:1017B00004C118968D919C911997681779070CF0C0
:1017C000C0C11A968D919C911B97481759070CF030
:1017D000B8C18C2C912CFB0126E0C29EE00DF11DBE
:1017E0001124F987E8871E161F060CF0AAC1A40170
:1017F00093E0440F551F9A95E1F75D874C87CA0126
:10180000820D931D181619060CF09BC157968C91EA
:10181000811104C05FEA5D1508F4D394A88DB98DD9
:10182000ED91FC9111970284F385E02DCD0109958E
:10183000F5013596F98BE88BBB82AA82250182EAF5
:1018400092E08A199B099C0145E0D49E200D311D30
:1018500011243B8B2A8BEA89FB89E40DF51D249129
:101860003D822C82D12CC12C622F70E07F876E8745
:10187000E88DF98DA081B18120FF7CC0F981F13024
:1018800009F069C01C96ED91FC912E813F81A10168
:101890004C0D5D1DB201888D998D0995EE85FF85F2
:1018A000F595E7952E2F4FEFC41AD40A6C817D81F0
:1018B000680D791D7D836C8378E0C716D104A1F68D
:1018C0008FEF481A580AAA81BB81A80DB91DBB83A6
:1018D000AA83E889F989E415F50509F0BCCF2E81C2
:1018E0003F8126153705A9F0A88DB98DED91FC91A2
:1018F000B981B13009F051C0B5016B5F7F4F0088ED
:10190000F189E02D830128E030E0A101888D998DD7
:101910000995A88DB98DED91FC9111970688F789ED
:10192000E02DCD0169960FB6F894DEBF0FBECDBF96
:10193000DF91CF911F910F91FF90EF90DF90CF90AB
:10194000BF90AF909F908F907F906F905F904F90DF
:101950003F902F9009941E96ED91FC91EE80FF80B0
:10196000840194014C815D816A817B81888D998D90
:10197000099594CF2E813F812615370509F48ECF26
:101980003981313029F41C96ED91FC9193017FCF80
:101990001E96ED91FC917301E3CF688579856819F6
:1019A00079090684F785E02D73010C851D85940166
:1019B000A101888D998D0995ACCFF9013496949148
:1019C000329745915491D91AB7E0DB9E400D511DD5
:1019D0001124F90125913491398B288BFA01459016
:1019E0005490FA01329664903196C49032961491D4
:1019F000319604913981323008F48AC0E12E012EEB
:101A0000000CFF08402F002E000C550B598748870B
:101A1000A88DB98DED91FC9111970284F385E02D8D
:101A2000CD010995B9818B2E912CE89CC001E99CD0
:101A3000900DF89C900D1124FC01EA0DFB1DFF8711
:101A4000EE871C82D12C712C9B868A869101200FF7
:101A5000311D07FD3A953D8B2C8BA501410F511D82
:101A600017FD5A955F8B4E8B7C1408F052CF872D53
:101A700090E048855985480F591F6A857B85469FA8
:101A80009001479F300D569F300D1124D901A20DB2
:101A9000B31DBD87AC87EE85FF85FB83EA83B12C40
:101AA000A12C2C893D89280F391F3B8B2A8B8C81D7
:101AB0008A0DA61408F040C0877041F4C201019657
:101AC000E889F989E40DF51DD4902C01D7FE15C0E5
:101AD000A88DB98DED91FC91B981B130F1F40484F8
:101AE000F585E02D2E813F814A895B896E897F894A
:101AF0006A0D7B1D888D998D0995DD0CEFEFAE1A6F
:101B0000BE0A2A813B81280D391D3B832A83CFCF12
:101B100019861886F12CE12C7BCF0684F785E02D01
:101B2000EE80FF80840194014C855D856A817B8114
:101B3000888D998D0995E1CF3C81360D3C83739456
:101B400093CF69960FB6F894DEBF0FBECDBFDF917D
:101B5000CF911F910F91FF90EF90DF90CF90BF90AA
:101B6000AF909F908F907F906F905F904F903F903D
:101B70002F900895AF92BF92CF92EF92FF920F9362
:101B80001F93CF93DF93EC01262F888D998D0097BB
:101B900009F04FC06A30C9F41D861C868C8998E014
:101BA000899F900111248E859F85820F931F9F87A7
:101BB0008E8781E090E0DF91CF911F910F91FF9090
:101BC000EF90CF90BF90AF9008956D3091F3CC8897
:101BD0008E898823C1F08C859D85E6E0CE9E800DA0
:101BE000911D1124488559854817590764F44E857D
:101BF0005F851D861C86F8E0CF9EC0011124840FEE
:101C0000951F9F878E87EA88FB88088919894E85EA
:101C10005F856C857D85CE010E94AD0B2C898C85FE
:101C20009D8536E0239F800D911D11249D878C8713
:101C3000C0CF6A3069F41D861C86FC013696E4919B
:101C40002C898E859F85E29F800D911D1124AFCF39
:101C50006D3009F4AECFFC0134963491631708F46B
:101C6000A8CF3196E491E61708F4A3CFFC01329691
:101C700045915491E62FE31BFF0B37E03E9F500147
:101C80003F9FB00C1124A40EB51EF501329634917D
:101C90003196E4913323A1F1EE2391F1CC88F50143
:101CA0003596E4914E89442301F10E2E000CFF0B72
:101CB000E30FF11DCE9EA001CF9E500D11246C8527
:101CC0007D85460F571F68857985641775076CF405
:101CD0004E855F851D861C860696FC018491C89EF4
:101CE000400D511D11245F874E87EA88FB880889C3
:101CF00019894E855F856C857D85CE010E94AD0B6F
:101D0000F5013496E4912C898C859D85E29F800DA8
:101D1000911D11248BCF6F927F928F929F92AF92E1
:101D2000BF92CF92DF92EF92FF920F931F93CF93C8
:101D3000DF93EC016B015A0139014801E881F98117
:101D40000284F385E02D0995E881F9810288F38901
:101D5000E02D87019301A501B601CE010995A501EA
:101D6000480D591D41505109E881F9810288F389D4
:101D7000E02D9301B601CE010995E881F981008833
:101D8000F189E02D9401A501B601CE010995C60C9B
:101D9000D71CB60161507109E881F9810088F18989
:101DA000E02D9401A501CE010995E881F98106880D
:101DB000F789E02DCE01DF91CF911F910F91FF9018
:101DC000EF90DF90CF90BF90AF909F908F907F90DB
:101DD0006F9009946F927F928F929F92AF92BF9271
:101DE000CF92DF92EF92FF920F931F93CF93DF93E7
:101DF0005C01EB016A01490138018701DC01ED91C9
:101E0000FC916217730719F5641675062CF0962D70
:101E1000872D3A01C92ED82E9601261937092F5F32
:101E20003F4F048CF58DE02DA301BE01C50109953E
:101E3000DF91CF911F910F91FF90EF90DF90CF90A6
:101E4000BF90AF909F908F907F906F9008954615B0
:101E5000570591F42617370724F0892D4B01C22F1F
:101E6000D82F9E01281939092F5F3F4F068CF78D17
:101E7000E02DA601B401DACF0284F385E02D0995A7
:101E8000D501ED91FC910488F589E02D8301940141
:101E9000A601BE01C5010995D501ED91FC91068809
:101EA000F789E02DC501DF91CF911F910F91FF9030
:101EB000EF90DF90CF90BF90AF909F908F907F90EA
:101EC0006F900994EF92FF920F931F93DC011A9683
:101ED0000D911C911B9718962D913C911997ED919E
:101EE000FC9100A0F1A1E02D7B0150E040E070E00A
:101EF00060E009951F910F91FF90EF9008954F9228
:101F00005F926F927F928F929F92AF92BF92CF9289
:101F1000DF92EF92FF920F931F93CF93DF936C01A9
:101F20002B015A0139014801DC01ED91FC91028439
:101F3000F385E02D0995E201640C751CD601ED9145
:101F4000FC91C615D7055CF40088F189E02D870166
:101F50009401A501BE01C60109952196EFCF06881F
:101F6000F789E02DC601DF91CF911F910F91FF906E
:101F7000EF90DF90CF90BF90AF909F908F907F9029
:101F80006F905F904F9009948F929F92AF92BF9203
:101F9000CF92DF92EF92FF920F931F93CF93DF9335
:101FA000EC015B014A016901E881F9810284F38552
:101FB000E02D099595012C0D3D1D21503109E88139
:101FC000F9810488F589E02D78018401A401B50127
:101FD000CE010995E881F9810688F789E02DCE01C7
:101FE000DF91CF911F910F91FF90EF90DF90CF90F5
:101FF000BF90AF909F908F9009948F929F92AF92D5
:10200000BF92CF92DF92EF92FF920F931F93CF93E5
:10201000DF93EC015B014A0169017801E881F981F4
:102020000284F385E02D0995C80CD91C8601015066
:102030001109E881F9810488F589E02D9501A40151
:10204000B501CE010995E881F9810688F789E02D6F
:10205000CE01DF91CF911F910F91FF90EF90DF9014
:10206000CF90BF90AF909F908F900994EF92FF9286
:102070000F931F93DC01ED91FC9100A0F1A1E02DE5
:1020800009951F910F91FF90EF9008950F931F9363
:10209000DC01ED91FC91068CF78DE02D09951F91E7
:1020A0000F9108952F923F924F925F926F927F927D
:1020B0008F929F92AF92BF92CF92DF92EF92FF9258
:1020C0000F931F93CF93DF93CDB7DEB7AC970FB6C7
:1020D000F894DEBF0FBECDBF6B013A013CA72BA722
:1020E0005801261737070CF0ABC1E616F7060CF4BB
:1020F000BEC1621773075CF03C2D2D2DCBA4DCA470
:102100003BA72CA7382F292FC301632E722ECE1484
:10211000DF04D9F56816790654F0382F292F861573
:10212000970514F4362D272D3C01832F922FA614EA
:10213000B7042CF08A159B050CF4C50153018A19CC
:102140009B099C012F5F3F4F01E010E0A601B50104
:1021500086E093E00E944610AC960FB6F894DEBF7E
:102160000FBECDBFDF91CF911F910F91FF90EF90E8
:10217000DF90CF90BF90AF909F908F907F906F90A7
:102180005F904F903F902F9008953A2D2B2D5C013A
:10219000832F922F3E2D2F2D7601C32ED22E930109
:1021A0002A193B094BA55CA54E195F09BC016A19A8
:1021B0007B097E836D83D601AE19BF09BA87A987D3
:1021C000BC01661977097E876D87C601ABA5BCA5E2
:1021D0008A1B9B0B9E8B8D8BCA16DB0609F48DC068
:1021E0001197BA8FA98F4701212C312C2101198A0F
:1021F0001A8A1B8A1C8ABA01550F880B990B6B8FA0
:102200007C8F8D8F9E8F89859A85092E000CAA0B55
:10221000BB0B8F8F98A3A9A3BAA3A901330F660B99
:10222000770B4BA35CA36DA37EA36D817E81072EEC
:10223000000C880B990B6FA378A789A79AA7898DA3
:102240009A8D881599050CF45BC069897A898B8908
:102250009C892B8D3C8D4D8D5E8D0E942232D50147
:10226000A20FB31FBA83A983C201B1012F8D38A178
:1022700049A15AA10E9422322A0D3B1D49895A893F
:102280006B897C898BA19CA1ADA1BEA1480F591F70
:102290006A1F7B1F498B5A8B6B8B7C8B4FA158A578
:1022A00069A57AA5240E351E461E571E69817A81BE
:1022B0002617370734F499818A813A832983292F95
:1022C000382F89819A81281B390B2F5F3F4F01E0FE
:1022D00010E0A401BC0186E093E00E9446109FEF4D
:1022E000891A990AACCF362D272D3C01832F922FC6
:1022F0003C2D2D2DCBA4DCA4C9C0DA8EC98E73CFA2
:102300009401ABA5BCA52A1B3B0B4D855E85249F84
:10231000C001259F900D349F900D11249C01990FB1
:10232000440B550B29833A834B835C83C4018E197C
:102330009F094D815E81849F1001859F300C949F81
:10234000300C1124032C000C440855086D897E893B
:10235000072E000C880B990B6D8B7E8B8F8B988FC3
:1023600089859A85092E000CAA0BBB0B89879A8751
:10237000AB87BC872D853E85032E000C440B550B87
:102380002D873E874F87588B4D815E81052E000C2F
:10239000660B770B4D835E836F837887C814D904EF
:1023A0000CF4DACE69817A818B819C812D893E89FA
:1023B0004F89588D0E942232B301620F731F7A8BAE
:1023C000698BC201B10129853A854B855C850E94E4
:1023D00022322A0D3B1D89819A81AB81BC814D85BA
:1023E0005E856F857889840F951FA61FB71F898327
:1023F0009A83AB83BC836D817E818F819885260E05
:10240000371E481E591E89899A892817390734F4BE
:1024100099898A893A8B298B292F382FA989BA89DA
:102420002A1B3B0B2F5F3F4F01E010E0A401BD01D1
:1024300086E093E00E944610BFEF8B1A9B0AAECF56
:102440002BA53CA5E216F3060CF061CEE616F706C6
:102450000CF449CF2B2D5A013C01802F922F3BA524
:102460002CA57CA76BA76701E32EF22E45CE4BA5CA
:102470005CA5E416F5060CF492CE3A2D2B2D5301F3
:10248000632E722E3E2D2F2DEBA4FCA43BA72CA770
:1024900086CE0F931F93DC01ED91FC91048CF58D9A
:1024A000E02D09951F910F910895DC01ED91FC91AC
:1024B0000084F185E02D09942F923F924F925F9214
:1024C0006F927F928F929F92AF92BF92CF92DF9244
:1024D000EF92FF920F931F93CF93DF9300D000D022
:1024E00000D0CDB7DEB73C016A013E832D83FC826C
:1024F000EB825801A41AB50AB7FE03C0B194A194A7
:10250000B1088D809E80861A970A97FE03C0919429
:10251000819491088A149B045CF0902F812F0D8187
:102520001E819D838E839C2D8D2D6B01692F782FAD
:102530000C151D055CF09D818E817E836D83692F56
:10254000782F902F812F8601C92ED82E1601201AA0
:10255000310A2B012D813E81421A530A57FE03C0D6
:10256000519441945108710137FE03C03FEFE31AC3
:10257000F30AF594E7948D819E81861797075CF5A1
:10258000A1E0B0E0BA83A983C016D1064CF1D30113
:10259000ED91FC910484F585E02D2B813C81A8010F
:1025A0006D817E818A149B041CF04D815E81B8018F
:1025B000C3010995E418F508F7FE0AC02D813E8194
:1025C00089819A81280F391F3E832D83E20CF31CE9
:1025D0000F5F1F4FD9CF2FEF3FEF3A832983D4CF1F
:1025E00026960FB6F894DEBF0FBECDBFDF91CF9118
:1025F0001F910F91FF90EF90DF90CF90BF90AF9021
:102600009F908F907F906F905F904F903F902F9012
:1026100008950895FC01908190539A3008F090E05D
:10262000818180532AE0929F800D1124089520918A
:10263000D101260F3327331F21323105ECF42091CD
:102640006702FC0190E080E0243069F082E00895A8
:10265000A091D1012191AC014F545E4FA40FB52F31
:10266000B11D2C930196861798F38091D101680FC4
:102670006093D10180E0089581E008959B01AC0151
:1026800060E074E284EF90E00E948B3220513109C7
:102690004109510956954795379527952093B800DC
:1026A00008951092670281E08093660210926102A1
:1026B00061E082E00E94FB0761E083E00E94FB078B
:1026C000E9EBF0E080818E7F808380818D7F808345
:1026D00088E48093B80085E48093BC000895CF938C
:1026E000DF9391E09093B0018823B9F0C091B800D6
:1026F000D091BA008091BC008A7B8093BC0060E0DE
:1027000082E00E94FB0760E083E00E94FB070E94DA
:102710005113D093BA00C093B800DF91CF910895C0
:10272000E0918E0280918D02E81730F4F0E0E359D9
:10273000FD4F808190E008958FEF9FEF0895809185
:102740008D0290918E02891B990B0895CF92DF9292
:10275000EF92FF920F931F93CF93DF937C01CB01F6
:102760008A0120919202222389F0EB016B01C40EB1
:10277000D51ECC15DD0569F06991D701ED91FC916D
:102780000190F081E02DC7010995F3CF642F0E94DD
:102790001713C801DF91CF911F910F91FF90EF9018
:1027A000DF90CF900895CF93DF931F92CDB7DEB720
:1027B0006983209192022223F9F020918F02203226
:1027C00058F021E030E0FC013383228390E080E088
:1027D0000F90DF91CF91089580919002E82FF0E063
:1027E000E057FE4F998190838F5F80939002809392
:1027F0008F0281E090E0ECCF61E0CE0101960E9473
:102800001713F7CF60E083EE92E00C94D313CF92CE
:10281000DF92EF92FF920F931F93CF93DF93D091AC
:102820008F0281E0D13208F09CC0C09191020E94D9
:102830005A086B017C018091670281116CC082E0B3
:102840008093670281E0809366028FEF8093650238
:1028500010926402D0936302A0E9B1E0E1E4F2E0F7
:1028600080E0D8138DC01092620280916202CC0F7A
:10287000C82BC093620280916102813009F084C04C
:10288000109261020E945A086B017C0180916202E1
:102890008093BB008091690290916A02A0916B02C3
:1028A000B0916C02892B8A2B8B2BA1F00E945A08C5
:1028B0000091690210916A0220916B0230916C02C2
:1028C0006C197D098E099F09061717072807390714
:1028D00008F442C08091BC0083FDD8CF85EC809382
:1028E000BC000E945A086B017C0180916702823013
:1028F00009F44CC0809165028F3F09F469C0809152
:102900006502803209F466C080916502803309F463
:1029100063C084E026C08091690290916A02A09110
:102920006B02B0916C02892B8A2B8B2B09F483CF1D
:102930000E945A080091690210916A0220916B026C
:1029400030916C026C197D098E099F0906171707D3
:102950002807390708F06FCF809168020E946F1333
:1029600085E01092900210928F0210929202DF91F5
:10297000CF911F910F91FF90EF90DF90CF9008952E
:102980009D9191938F5F6DCF85EEA9CF8091690264
:1029900090916A02A0916B02B0916C02892B8A2BF4
:1029A0008B2B09F4A2CF0E945A0800916902109162
:1029B0006A0220916B0230916C026C197D098E09BC
:1029C0009F09061717072807390708F08ECFC4CFCD
:1029D00080E0C7CF82E0C5CF83E0C3CFFF920F93E3
:1029E0001F93CF93DF93F82ED92FC62F8091220308
:1029F00090912303892B09F447C0809126030E94FC
:102A0000A1058091220390912303DC01ED91FC91BB
:102A10000190F081E02D60E009950F2D1D2FD1E090
:102A2000C1508091220390912303CF3F31F1D032E6
:102A300098F00E940714809126030E94A1058091BE
:102A4000220390912303DC01ED91FC910190F08130
:102A5000E02D60E00995D1E080912203909123035D
:102A6000F8016491DC01ED91FC910190F081E02D81
:102A70000995DF5F0F5F1F4FD3CFDF91CF911F917C
:102A80000F91FF900C940714E0913203F0913303FF
:102A90009081809138038095892380830F2D1D2F8D
:102AA000C15008F438C0F80184912091200330917E
:102AB0002103232B29F00E948C0B0F5F1F4FF0CFB7
:102AC00028E030E040E8E0912E03F0912F03909150
:102AD0003603582F5423D9F05081952B9083E091E1
:102AE0003003F0913103908150913703952B9083FF
:102AF000E0913003F091310350819091370390952C
:102B000095239083469521503109E9F6D6CF50811F
:102B100090959523E3CFDF91CF911F910F91FF9077
:102B200008951F93CF93DF93EC018C8D9D8D892B9E
:102B3000F9F0162F88A10E94A1058C8D9D8DDC01D6
:102B4000ED91FC910190F081E02D60E009958C8D74
:102B50009D8DDC01ED91FC910190F081E02D612FC4
:102B600009958C8D9D8DDF91CF911F910C94071449
:102B7000ACA5BDA59C918AA9809589238C938A8D4B
:102B80009B8D892B31F0862FDF91CF911F910C9473
:102B90008C0B28E030E080E8A8A5B9A598A9462FBD
:102BA0004823C1F04C91942B9C93AAA5BBA59C9162
:102BB00049A9942B9C93AAA5BBA54C9199A9909542
:102BC00094239C9386952150310931F7DF91CF9161
:102BD0001F9108954C9190959423E6CFCF93C82FE1
:102BE0008091220390912303892B41F160913A0354
:102BF00070913B0380913C0390913D030E943E13F2
:102C000061E886E093E00E94911560914203C11152
:102C100060E086E093E00E949115809122039091FC
:102C20002303892B11F160913E0370913F03809142
:102C3000400390914103CF910C943E138091200367
:102C400090912103892B31F08091430390914403AB
:102C50000E94940BE0913403F091350390818091B0
:102C60003903809589238083CBCFE0913403F091A1
:102C70003503808190913903892B8083CF9108950A
:102C8000CF93C82F8091220390912303892B01F1C8
:102C900060913A0370913B0380913C0390913D0316
:102CA0000E943E136C2F86E093E00E949115809164
:102CB000220390912303892B11F160913E037091BF
:102CC0003F038091400390914103CF910C943E13B8
:102CD0008091200390912103892B31F0809143034F
:102CE000909144030E94940BE0913403F0913503DA
:102CF000908180913903809589238083D3CFE0919F
:102D00003403F0913503808190913903892B8083BE
:102D1000CF9108958FEA0C944016FF920F931F9362
:102D2000CF93DF938091220390912303892B09F4A1
:102D300079C060913A0370913B0380913C0390917C
:102D40003D030E943E1365E085EB99E00E94EE147E
:102D500060910A03615086E093E00E9491152091F2
:102D60000C0330910D03C901079697FD079623E0E8
:102D7000959587952A95E1F720910A0330910B03E9
:102D8000829F8001839F100D929F100D1124C0918E
:102D90002403D091250380912203909123030C0FEB
:102DA0001D1F892B09F46DC0809126030E94A10587
:102DB0008091220390912303DC01ED91FC9101901D
:102DC000F081E02D60E40995FF24F39480912203C3
:102DD000909123030C171D07E1F1BFE1BF15A0F48B
:102DE0000E940714809126030E94A105809122036E
:102DF00090912303DC01ED91FC910190F081E02D95
:102E000060E40995FF24F3948091220390912303B9
:102E10006991DC01ED91FC910190F081E02D099523
:102E2000F394D4CF8091200390912103892B31F02A
:102E300080914303909144030E94940BE0913403EA
:102E4000F0913503908180913903809589238083A7
:102E50007ACF0E9407148091220390912303892B3B
:102E600009F450C060913E0370913F03809140038C
:102E700090914103DF91CF911F910F91FF900C949E
:102E80003E13E0913203F091330380819091380337
:102E9000892B80830C171D07F1F289912091200363
:102EA00030912103232B19F00E948C0BF3CF28E0E3
:102EB00030E040E8E0912E03F0912F03909136032B
:102EC000582F5423D9F05081952B9083E0913003F3
:102ED000F0913103908150913703952B9083E091CD
:102EE0003003F091310350819091370390959523F1
:102EF0009083469521503109E9F6CCCF50819095C9
:102F00009523E3CFE0913403F091350380819091D4
:102F10003903892B8083DF91CF911F910F91FF900F
:102F200008951F93CF93DF93EC01162F8C8D9D8D09
:102F3000892BC9F06CA97DA98EA99FA90E943E1377
:102F400066EA111167EACE010E9491158C8D9D8D64
:102F5000892BC9F068AD79AD8AAD9BADDF91CF917A
:102F60001F910C943E138A8D9B8D892B21F08DAD82
:102F70009EAD0E94940BEEA5FFA590818BA9809534
:102F800089238083DDCFEEA5FFA580819BA9892BB6
:102F90008083DF91CF911F9108951F93CF93DF938B
:102FA000EC0188E60E94A1050E9402142D811AE01E
:102FB000822F612F0E94B733682F660F680F660F4C
:102FC000620F83EE92E00E94D3132C81822F612F37
:102FD0000E94B733682F660F680F660F620F83EE8B
:102FE00092E00E94D3132B81822F612F0E94B7336E
:102FF000682F660F680F660F620F83EE92E00E94E3
:10300000D31360E083EE92E00E94D3132A81822FD3
:10301000612F0E94B733682F660F680F660F620F2B
:1030200083EE92E00E94D3132981822F612F0E94A8
:10303000B733682F660F680F660F620F83EE92E05A
:103040000E94D3132881822F612F0E94B733682FEB
:10305000660F680F660F620F83EE92E00E94D31333
:103060000E94021483EE92E0DF91CF911F910C94A5
:10307000071490E080E00895CF93DF93EC01209156
:10308000F502253010F130E050E040E025503109E4
:1030900041095109ACEBBFEF0E944F3227E330E00A
:1030A00040E050E00E942232205B3F4F4F4F5F4F85
:1030B0002B838A8190E002966AE070E00E94C3331D
:1030C0008A831C82DF91CF9108958C818F5F8C83DE
:1030D000F9CF0895CF92DF92EF92FF920F931F9353
:1030E000CF93DF93EC01F8948FB7F894C0903D0232
:1030F000D0903E02E0903F02F09040028FBF888166
:10310000182F117080FD34C089819A819601281B87
:10311000390B2937310530F0888181608883DA8264
:10312000C98211E088818D7F88838881082F017092
:1031300080FF13C089819A819601281B390B29379A
:10314000310558F08B810E94D207892B31F4888198
:103150008E7F8883DA82C982102F7894812FDF9145
:10316000CF911F910F91FF90EF90DF90CF90089536
:1031700010E0D8CF8F929F92AF92BF92CF92DF9202
:10318000EF92FF920F931F93CF93DF937C01D62F83
:103190000E945A084B015C0180916702811167C04F
:1031A000CD2F81E080936702809366029FEF90931A
:1031B0006502109264029D0F9093630280936202F5
:1031C00080916202EE0CFF1C8E2980936202809136
:1031D0006102813009F083C0109261020E945A0896
:1031E0006B017C01809162028093BB008091690237
:1031F00090916A02A0916B02B0916C02892B8A2B8C
:103200008B2BA1F00E945A088090690290906A026C
:10321000A0906B02B0906C026C197D098E099F0919
:1032200086169706A806B90608F442C08091BC002D
:1032300083FDD8CF85EC8093BC000E945A086B01B7
:103240007C0180916702813009F44BC08091640257
:103250008D1710F4C0916402E1E4F2E0ADE6B2E053
:1032600080E08C1751F191919D938F5FFACF8091FF
:10327000690290916A02A0916B02B0916C02892B55
:103280008A2B8B2B09F488CF0E945A08009169027F
:1032900010916A0220916B0230916C0268197909D1
:1032A0008A099B09061717072807390708F074CF02
:1032B000809168020E946F13C0E010928E02C0934A
:1032C0008D028C2FDF91CF911F910F91FF90EF9086
:1032D000DF90CF90BF90AF909F908F90089585EE34
:1032E000AACF8091690290916A02A0916B02B0917D
:1032F0006C02892B8A2B8B2B09F4A3CF0E945A08CE
:103300008090690290906A02A0906B02B0906C026B
:103310006C197D098E099F0986169706A806B906BD
:1033200008F08FCFC5CFEF92FF920F931F93CF93EB
:10333000DF932FB7F89480913D0290913E02A091C7
:103340003F02B09140022FBF40910203509103030E
:103350006091040370910503841B950BA60BB70BBA
:10336000893E9340A105B10578F4452B462B472BA8
:1033700059F01092F7021092F602DF91CF911F914F
:103380000F91FF90EF900895E090F40288E60E947C
:10339000A1050E94021483EE92E00E94071467E0E8
:1033A00070E088E690E00E94BA180E94BE058F7710
:1033B000282F30E094E0359527959A95E1F7922FE4
:1033C000990F990FC22FC91BCC0FC80F0E94BE05C1
:1033D0009C0144E0359527954A95E1F72F703327F6
:1033E000922F990F990FD22FD91BDD0FD80F0E9462
:1033F000BE059C0154E0359527955A95E1F72F704D
:103400003327922F990F990F122F191B110F180F95
:103410000E94BE050E94BE059C0164E0359527957B
:103420006A95E1F72F703327922F990F990F022F8A
:10343000091B000F080F0E94BE059C0174E0359522
:1034400027957A95E1F72F703327922F990F990FCF
:10345000F22EF91AFF0CF80E0E94BE059C01E4E062
:1034600035952795EA95E1F72F703327922F990F1D
:10347000990F291B220F820F8093F002F092F10224
:103480000093F2021093F302D093F402C093F5027A
:103490002FB7F89480913D0290913E02A0913F0297
:1034A000B09140022FBF8093020390930303A09337
:1034B0000403B093050381E09091F4029E1101C0D2
:1034C00080E08093F70281E08093F60262E070E092
:1034D00089E490E00E94BA180E94BE05C82F0E949D
:1034E000BE0560E07C2F682B84E0759567958A9512
:1034F000E1F7072E000C880B990B0E94BE3220E0EA
:1035000030E040E85DE30E94F9326093F802709386
:10351000F9028093FA029093FB022FCF8F929F9231
:10352000BF92CF92DF92EF92FF920F931F93CF93B0
:10353000DF93CDB7DEB729970FB6F894DEBF0FBE85
:10354000CDBF4C016B018091F3029091FC0291116F
:1035500007C06CE00E94B733892F911101C08CE045
:103560009091F4021F929F931F928F9388E992E0AB
:103570009F938F931F9289E08F938E010F5F1F4F50
:103580001F930F930E945E2F81E090E0D601539627
:103590009C938E93529751969C938E93509782E072
:1035A00054968C9354978AE090E01D969C938E934A
:1035B0001C971F961C921E921E97F80101900020E6
:1035C000E9F73197AF01401B510BED91FC9102805F
:1035D000F381E02DB801C601099581E0F601848BE5
:1035E0000FB6F894DEBF0FBECDBF8091FC028111F3
:1035F00013C086E490E09587848787E090E0978702
:1036000086878091F30265E972E08C3010F462E9FC
:1036100072E0C6010E94B406D601ED91FC91068CC1
:10362000F78DE02D01E010E020E830E04AE250E0C4
:1036300070E060E0C6010995D601ED91FC91068C21
:10364000F78DE02D20E830E048E250E070E060E0E7
:10365000C6010995D601ED91FC91068CF78DE02D00
:1036600020E830E04BE350E070E060E0C6010995EF
:10367000D601ED91FC91068CF78DE02D20E830E02D
:103680004DE350E070E060E0C6010995F4018281ED
:1036900094E5B92EB81AB7FC5CC0EB2CF12CD6011E
:1036A000ED91FC910284F385E02DC6010995D601C8
:1036B000ED91FC910088F189E02D01E010E023E01C
:1036C00030E041E350E0B701C6010995B7016F5FF3
:1036D0007F4FD601ED91FC910088F189E02D21E02A
:1036E00030E042E350E0C6010995D601ED91FC912E
:1036F0000088F189E02D23E030E041E350E0B7019C
:10370000C6010995B70161507109D601ED91FC918F
:103710000088F189E02D21E030E042E350E0C6016D
:103720000995D601ED91FC910088F189E02D23E007
:1037300030E041E350E0B701C6010995D601ED91B3
:10374000FC910688F789E02DC6010995BAE0BB0E09
:10375000A2CFF4018281823008F441C020E086309B
:1037600008F42AE1ECE1BE2E853008F4B12CD40136
:1037700014968C91811135C030E02C5B3D4F7DE07B
:10378000E72EF12C00E110E04CE250E060E470E044
:10379000C6010E941A052B2D30E0245F3D4FF40135
:1037A000838160E470E0681B71095EE0E52EF12C16
:1037B0004CE250E0C6010E941A0529960FB6F89413
:1037C000DEBF0FBECDBFDF91CF911F910F91FF9054
:1037D000EF90DF90CF90BF909F908F90089524E35B
:1037E000C5CF8530B8F430E02C5B3D4F6DE0E62E60
:1037F000F12C00E110E04CE250E060E470E0C60122
:103800000E941A052B2D30E0245F3D4FD401139602
:103810008C91C7CF8B3188F68550990B95958795FC
:103820004CE1489F9001499F300D112428523F4F91
:103830004EE0E42EF12C0FE010E04CE250E060E4AA
:1038400070E0B8CFCF92DF92EF92FF920F931F9369
:10385000CF93DF93CDB7DEB728970FB6F894DEBFCE
:103860000FBECDBF6C01EE24E394F12C00E410E018
:1038700020E830E050E040E070E060E086E093E077
:103880000E948B0E81E090E09093190380931803BF
:10389000909317038093160380931A0382E090E0BD
:1038A0009093130380931203909315038093140352
:1038B000B60186E093E00E94B40626E0289F6001EE
:1038C000299FD00C112482E0C80ED11C01E010E029
:1038D00096014AE050E070E060E086E093E00E94EC
:1038E000960A2AE030E050E040E0B60186E093E03E
:1038F0000E944D0A8091FC02882309F477C08FE171
:10390000C82ED12C96012E5F3F4F6EE770E06C19E8
:103910007D09EE24E394F12C0AE010E050E040E051
:1039200086E093E00E947F0F96012F5F3F4F6FE785
:1039300070E06C197D0901E010E04AE050E086E09B
:1039400093E00E94960A109217031092160381E0EA
:1039500090E0909319038093180380E890E08C190D
:103960009D094091FC023091F4022091F3028E01F6
:103970000F5F1F4F909313038093120382E090E038
:103980009093150380931403442391F11F923F9366
:103990001F922F9386EC99E09F938F931F9287E05D
:1039A0008F931F930F930E945E2F0FB6F894DEBF84
:1039B0000FBECDBFF80101900020E9F73197AF01AC
:1039C000401B510BB80186E093E00E94D806289670
:1039D0000FB6F894DEBF0FBECDBFDF91CF911F9120
:1039E0000F91FF90EF90DF90CF90089585E288CF00
:1039F000822F6CE00E94B733911101C09CE080E5FA
:103A00002C3008F481E41F928F931F923F931F92F2
:103A10009F938AEB99E09F938F931F9287E08F93F8
:103A20001F930F930E945E2FC0CF8F929F92AF92F1
:103A3000BF920F931F93CF93DF93CDB7DEB7A197BC
:103A40000FB6F894DEBF0FBECDBF19A2423008F406
:103A50004AE08E010F5D1F4F842E912CB12CA12CBA
:103A6000A50194010E948B32E62FB901CA01EA3008
:103A700044F5E05DD801EE938D01232B242B252BFB
:103A800079F790E080E0109769F0FD010190002047
:103A9000E9F73197AF014A1B5B0BBD0186E093E06C
:103AA0000E94D806A1960FB6F894DEBF0FBECDBF18
:103AB000DF91CF911F910F91BF90AF909F908F900A
:103AC0000895E95CD7CF20910C0330910D03C90113
:103AD000079697FD079623E0959587952A95E1F738
:103AE00020910A0330910B03829FA001839F500D08
:103AF000929F500D112470E060E08091240390911A
:103B000025030C941B350E94163585ED8093BC006F
:103B10008091690290916A02A0916B02B0916C024F
:103B20000796A11DB11D23E0B695A795979587959A
:103B30002A95D1F72091BC0024FD03C010926702A2
:103B400008954091690250916A0260916B027091F0
:103B50006C02452B462B472B69F30097A105B10555
:103B600041F025E32A95F1F700000197A109B10979
:103B7000E1CF809168020C946F130C94143263E4CB
:103B800090E080E00E94BD1D6091FC028091FD02EA
:103B90008111626081E090E00E94BD1D6091FE0293
:103BA00082E090E00E94BD1D6091FF0283E090E002
:103BB0000E94BD1D6091000384E090E00E94BD1D45
:103BC0006091010385E090E00C94BD1D1F920F925F
:103BD0000FB60F9211248F939F938091E1009091E3
:103BE000E100937F9093E10083FF0FC01092E90002
:103BF00091E09093EB001092EC0092E39093ED0033
:103C000010923C0298E09093F00082FF22C093E073
:103C10009093E9009091F200992319F09AE3909320
:103C2000E8009091FE01992341F09091FE0191509E
:103C30009093FE01911101C05D9A90913B029923EE
:103C400041F090913B02915090933B02911101C041
:103C5000289A84FF18C08091E2008E7E8160809354
:103C6000E2008091E1008F7E8093E1008091FF016E
:103C70008E7E80618093FF019F918F910F900FBE88
:103C80000F901F90189580FFF7CF8091E2008E7EF5
:103C900080618093E2008091E1008E7E8093E1005C
:103CA0008091FF018E7E8160E5CF1F920F920FB64B
:103CB0000F921124CF92DF92EF92FF920F931F93F6
:103CC0002F933F934F935F936F937F938F939F9324
:103CD000AF93BF93EF93FF93CF93DF93CDB7DEB74F
:103CE0006C97DEBFCDBF1092E9008091E80083FFA2
:103CF00025C068E0CE0145960E94A70682EF80931A
:103D0000E8008D8987FF39C09091E80090FFFCCFD3
:103D1000982F907609F034C19E894F89588D2F894C
:103D2000F88C911131C0803861F580910002809348
:103D3000F1001092F1008EEF8093E8006C960FB6C0
:103D4000F894DEBF0FBECDBFDF91CF91FF91EF9111
:103D5000BF91AF919F918F917F916F915F914F91A3
:103D60003F912F911F910F91FF90EF90DF90CF9097
:103D70000F900FBE0F901F9018959EEF9093E80044
:103D8000C7CF1092F100D5CF913059F48111D3CF24
:103D90004130510581F6809100028D7F80930002B1
:103DA000CACF933049F48111C6CF4130510519F67D
:103DB000809100028260F2CF953041F48091E8005A
:103DC00080FFFCCF20682093E300B5CF963009F048
:103DD000A9C00B8D1C8D22E01092E9001092FC010D
:103DE0001092FB01F2122EC01092FA011092F9010A
:103DF0000E9476061F8299E09983FA8291E09E8361
:103E000090EA98879AEF99872091FB013091FC0105
:103E1000275F3F4F3C832B838D831092E9001092E4
:103E2000FC011092FB011093FA010093F90149E0A3
:103E300050E0BE016F5F7F4F80E00E9450060E94FD
:103E4000760679CF1093FA010093F9010E940C06CF
:103E5000DC0112960D911C910115110509F451C157
:103E6000D801ED91FC910480F581E02DBE016B5EDF
:103E70007F4FC8010995009709F03EC1F801008500
:103E80001185EACFF3E0FF120EC08F89882309F471
:103E900040C0823061F440E860E185E398E00E9430
:103EA0002423811148CF81E28093EB0047CF8130FA
:103EB00029F440E86BE089E298E0F1CF833099F78C
:103EC0000E940C06DC011296ED90FC908E010F5FB3
:103ED0001F4F6801E114F10479F0D701ED91FC91D5
:103EE0000680F781E02DB801C7010995080F111D63
:103EF000F701E084F184EECFD8011C92F601019025
:103F00000020E9F73197BF016C197D0940E0C60137
:103F1000C6CF63E178E0FB01449150E080E80E9465
:103F2000500609CF973009F4BECF983021F481E0D4
:103F30008093F10000CF993009F0FDCE837009F035
:103F4000B2CFE9E1F1E081E031E096E32191222373
:103F500071F08093E9003093EB00DF0111972C9111
:103F60002093EC009093ED008F5F873079F78EE718
:103F70008093EA001092EA008F8980933C02DBCEA6
:103F80008B8D9C8D1092E9001092FC011092FB0128
:103F90009093FA018093F901898D811192C08E89E5
:103FA0009D89913A49F4813209F07DCF47E050E094
:103FB00064E071E080E0B3CF913209F074CF8332D6
:103FC00069F48F89988DB0E0A0E080930001909310
:103FD0000101A0930201B0930301ADCE803269F4D8
:103FE0008091E80082FFFCCF67E084E091E00E94CE
:103FF000A7068BEF8093E8009ECE823209F09BCE1D
:104000008F8980930B01EEEFFFE7859194918B3FB1
:104010009C4D51F1E0E0F8E08091040190910501A0
:10402000A0910601B0910701803B9440A105B10524
:10403000F1F480910B0180FD1AC0EE3F8AE0F80791
:1040400089F587E797E7918380838091600080936B
:10405000FD0188E19BE00FB6F894A895809360007D
:104060000FBE9093600067CEEEEFFAE0D5CF80816F
:1040700091818737974709F05ECEA89580916000BF
:104080008861809360008091FD0180936000EE3F25
:104090002AE0F20789F08091FE0A9091FF0A91834D
:1040A000808349CE808191818737980751F2909320
:1040B000FF0A8093FE0AC5CF1092FF0A1092FE0AF3
:1040C0003ACE0E940C06DC0112960D911C9101154E
:1040D000110509F4E8CED801ED91FC910190F08131
:1040E000E02DBE016B5E7F4FC8010995811123CE83
:1040F000F80100851185EBCF181619060CF41BCEBC
:10410000D2CEF1E0FF12BECE67E178E004CF1F927D
:104110000F920FB60F9211242F933F938F939F937B
:10412000AF93BF9380913D0290913E02A0913F02D8
:10413000B09140023091F40123E0230F2D3758F560
:104140000196A11DB11D2093F40180933D0290932F
:104150003E02A0933F02B09340028091F5019091FE
:10416000F601A091F701B091F8010196A11DB11DD2
:104170008093F5019093F601A093F701B093F801B5
:10418000BF91AF919F918F913F912F910F900FBE53
:104190000F901F90189526E8230F0296A11DB11DC0
:1041A000D2CF1F920F920FB60F9211242F933F93ED
:1041B0004F935F936F937F938F939F93AF93BF932F
:1041C000EF93FF938091B900887F803609F44AC04D
:1041D000F0F5883209F4A7C018F5803109F49BC0C6
:1041E000B8F4882309F4F9C0883009F494C0FF9129
:1041F000EF91BF91AF919F918F917F916F915F915F
:104200004F913F912F910F900FBE0F901F901895D7
:10421000883109F488C0803251F78093650214C058
:10422000803409F49DC040F48033B9F38833F9F643
:104230008093650285ECB0C0803509F485C088356F
:1042400009F496C0883499F60E94851DD0CF88392C
:1042500009F48CC038F5883729F050F4883611F00D
:10426000803729F683E0809367021092F30157C0EC
:10427000883809F47BC0803919F0803809F0B7CF4D
:104280008091F301803208F071C0E091F30181E088
:104290008E0F8093F3018091BB00F0E0ED52FE4F52
:1042A00080833DC0803B39F0E0F4803A09F479C066
:1042B000883A09F09CCF84E0809367021092D20183
:1042C0001092D101E0910402F091050209958091CC
:1042D000D10181110FC081E08093D1011092B10111
:1042E00009C0803C09F4A6CF883C09F4A3CF883BE1
:1042F00009F07DCFE091D20181E08E0F8093D20151
:10430000F0E0EF54FE4F80818093BB009091D2018A
:104310008091D10129C0809162028093BB0085EC1D
:104320008093BC0064CF90916402809163029817DF
:1043300058F5E091640281E08E0F80936402F0E012
:10434000EF5BFD4F8081E9CFE091640281E08E0F49
:10435000809364028091BB00F0E0EF5BFD4F8083AF
:1043600090916402809163029817C8F285E8D8CFD3
:10437000E091640281E08E0F809364028091BB0023
:10438000F0E0EF5BFD4F80838091660281115CCF8E
:1043900081E08093610284EA8093BC0010926702FE
:1043A00026CF85EC8093BC00109267028091F301C8
:1043B000803230F4E091F301F0E0ED52FE4F1082D4
:1043C0006091F30170E0E0910202F091030283ED4D
:1043D00091E009951092F3010ACF1092650234CF53
:1043E0001F920F920FB60F9211242F933F934F936A
:1043F0005F936F937F938F939F93AF93BF93CF936D
:10440000EF93FF9393B1C0911202809124023091F7
:104410002302292F209523238923822B20916B00AF
:10442000C927C223C82390931202CC23C1F1C0FF35
:1044300005C0E0911302F09114020995C1FF05C077
:10444000E0911502F09116020995C2FF05C0E091B6
:104450001702F09118020995C3FF05C0E0911902F7
:10446000F0911A020995C4FF05C0E0911B02F0917A
:104470001C020995C5FF05C0E0911D02F0911E02C6
:104480000995C6FF05C0E0911F02F0912002099531
:10449000C7FF05C0E0912102F09122020995FF912A
:1044A000EF91CF91BF91AF919F918F917F916F913C
:1044B0005F914F913F912F910F900FBE0F901F90E2
:1044C00018951F920F920FB60F9211242F933F93BE
:1044D0004F935F936F937F938F939F93AF93BF930C
:1044E000EF93FF93E0910E02F0910F020995FF9177
:1044F000EF91BF91AF919F918F917F916F915F915C
:104500004F913F912F910F900FBE0F901F901895D4
:104510001F920F920FB60F9211242F933F934F9338
:104520005F936F937F938F939F93AF93BF93EF931B
:10453000FF93E0910C02F0910D020995FF91EF912C
:10454000BF91AF919F918F917F916F915F914F91AB
:104550003F912F910F900FBE0F901F9018951F92B3
:104560000F920FB60F9211242F933F934F935F93A7
:104570006F937F938F939F93AF93BF93EF93FF932B
:10458000E0910A02F0910B020995FF91EF91BF9122
:10459000AF919F918F917F916F915F914F913F91DB
:1045A0002F910F900FBE0F901F9018951F920F9292
:1045B0000FB60F9211242F933F934F935F936F93F6
:1045C0007F938F939F93AF93BF93EF93FF93E0916C
:1045D0000802F09109020995FF91EF91BF91AF9107
:1045E0009F918F917F916F915F914F913F912F910B
:1045F0000F900FBE0F901F9018951F920F920FB63D
:104600000F9211242F933F934F935F936F937F9358
:104610008F939F93AF93BF93EF93FF93E091060225
:10462000F09107020995FF91EF91BF91AF919F9192
:104630008F917F916F915F914F913F912F910F904B
:104640000FBE0F901F901895EF92FF920F931F933C
:10465000CF93DF93F82E192FE62E042F81E0860FDB
:10466000880F0E94220683E00E942206CF2DD12FC0
:10467000EC0EFD2EF11CCE15DF05B9F007FF13C0BF
:10468000FE0184910E942206182F80E00E942206DB
:10469000812321968111EFCFDF91CF911F910F914F
:1046A000FF90EF9008958881EDCF81E0F5CF0C94D5
:1046B0000C32CF93109296021092950288EE93E0FE
:1046C000A0E0B0E08093970290939802A0939902A3
:1046D000B0939A0223E431E0309394022093930242
:1046E0002FEF3FEF3093A00220939F021092E6023B
:1046F0001092E5028093E7029093E802A093E9020A
:10470000B093EA0285E591E09093E4028093E3029E
:1047100010924F0310924E038AE0809350038091D1
:104720004D038E7F80934D0380914D038D7F809349
:104730004D0310924B0310924A0388E080934C0380
:10474000809149038E7F80934903809149038D7F37
:104750008093490310924703109246038BE08093A5
:104760004803809145038E7F8093450380914503E4
:104770008D7F80934503109209031092080340E84F
:1047800050E050930B0340930A0380E490E0909331
:104790000D0380930C0350930F0340930E039093EB
:1047A00011038093100310921B03109213031092B5
:1047B0001203109215031092140381E080931A03E0
:1047C0003093190320931803309317032093160393
:1047D00080931C0310921D0310921F0310921E035E
:1047E00027E631E030930703209306032FEE32E0F3
:1047F000309321032093200310922303109222036D
:1048000010922503109224039FEF90932903909315
:104810002A0395E190932B0397E190932C0396E163
:1048200090932D0390E5909343038093440380E19C
:104830008093F5028CE18093F40286E08093F3028A
:1048400040E081E697E9E3E9FEEF542F537021E061
:1048500009F020E061E0640F30E0D901A359BE4FB8
:104860008A179B0738F0AF01421B530B840F951F2B
:10487000462FEBCF4093F00221E0622F6150770B7F
:10488000FB01E053F64FE491511103C0223009F4CB
:10489000EF5FF0E031E0320F8E179F0720F08E1BA4
:1048A0009F0B232FEACF2093F1028F5F8093F202B8
:1048B0001092F6021092F7021092F8021092F9028A
:1048C0001092FA021092FB021092FC021092FD026A
:1048D00082E08093FE028FEF8093FF02109201032B
:1048E000109200031092020310920303109204032B
:1048F0001092050390E080E00E945723C82F8FEBB1
:104900008C0F833060F481E090E00E945723982F51
:1049100091709093FC02869581708093FD028EEBDE
:104920008C0F8230E8F482E090E00E94572380935D
:10493000FE02C334A9F483E090E00E9457238093E1
:10494000FF0284E090E00E945723C82F85E090E0AA
:104950000E945723982F8C2F90930103809300037C
:10496000CF910895CF93DF93CDB7DEB763970FB69E
:10497000F894DEBF0FBECDBF789484B5826084BD4D
:1049800084B5816084BD85B5826085BD85B5816053
:1049900085BD80916E00816080936E0010928100D1
:1049A000809181008260809381008091810081608C
:1049B000809381008091800081608093800080914D
:1049C000910082608093910080919100816080933A
:1049D0009100809190008160809390008091C1004F
:1049E00084608093C1008091C10082608093C10087
:1049F0008091C10081608093C1008091C30081607B
:104A00008093C3008091C00082608093C000809139
:104A1000C20081608093C20080917A00846080939C
:104A20007A0080917A00826080937A0080917A0087
:104A3000816080937A0080917A00806880937A0008
:104A400010923C02109200021092FF018091D70058
:104A500081608093D70080EA8093D80089B5806117
:104A600089BD89B5826089BD09B400FEFDCF61E0D2
:104A700070E080E090E00E947F088091D8008F7CF9
:104A800080618093D8008091E000807F8093E00077
:104A90008091E1008E7E8093E1008DE08093E200C2
:104AA000559A209A8FEF9FEF9093A00280939F02D8
:104AB000E9E4F8E0E49190917B008E2F880F880F55
:104AC00080729F7D892B80937B00E770E064E09388
:104AD0007C0080917A00806480937A0080917A00D3
:104AE00086FDFCCF8091780060917900762F682F49
:104AF000072E000C880B990B611571058105910536
:104B000011F00E944C2F10928E0210928D02109282
:104B1000900210928F020E94511380E296E09093CF
:104B200005028093040281E296E090930302809351
:104B300002028091240390912503892B41F10E9468
:104B4000631D80910C0390910D0360910A03709195
:104B50000B03AC0140525109813291050CF07FC02A
:104B600057FF03C0AC014F51510955954795605807
:104B7000710977FF02C06F5F7F4F75956795F0E20F
:104B8000EF2EF12C00E810E020E838E079C0209109
:104B90000C0330910D03C901079697FD079623E09A
:104BA000959587952A95E1F720910A0330910B039B
:104BB000AC01429FC001439F900D529F900D112464
:104BC0000E94F1339093250380932403892B09F0ED
:104BD000B6CF0E94631D60E086E093E00E94980BD0
:104BE00088E60E94A1050E94021483EE92E00E94D2
:104BF000071461E070E088E690E00E94BA180E9415
:104C0000BE0587FF37C24BE050E06AEA78E0CE018C
:104C100001960E94552FCE010A960E940A138C8796
:104C2000E981E154E33108F005C20E2E000CFF0BC0
:104C3000E45EF94D0C94D733A4291A281A28B82910
:104C40001A28A2291A281A281A2810281A281A28D5
:104C5000AB29B629B4291A281A281A28B229559539
:104C600047956058710977FF02C06F5F7F4F759558
:104C7000679510E2E12EF12C00E810E020E838E022
:104C800086E093E00E941A0582E0809327038091DA
:104C9000220390912303892B09F4CCC080910C034B
:104CA00090910D03809709F0C3C08CE38093260395
:104CB00010928E0210928D021092900210928F022A
:104CC0000E94511380E296E09093050280930402C3
:104CD00081E296E0909303028093020280912D037B
:104CE00087FD1EC061E00E94290861E080912D03CC
:104CF0000E94FB0761E070E080E090E00E947F0886
:104D000060E080912D030E94FB076AE070E080E084
:104D100090E00E947F0861E080912D030E94FB07D4
:104D20008091220390912303892B09F442C1609161
:104D30003A0370913B0380913C0390913D030E94A4
:104D40003E1364E08EE698E00E94EE1460910C033E
:104D5000615086E093E00E94911564E08AE698E055
:104D60000E94EE148091270360E1813009F064E134
:104D700086E093E00E94911564E086E698E00E9448
:104D8000EE148FE88093420380910A0390910B0305
:104D90008038910509F026C180910C0390910D0394
:104DA0008034910509F02EC180912703813009F0EC
:104DB00017C18FE98093420312E16AED86E093E028
:104DC0000E949115612F86E093E00E94911561E8A1
:104DD00086E093E00E9491156091420386E093E0A3
:104DE0000E94911569ED86E093E00E9491158091F3
:104DF000270362E2813009F061EF86E093E00E94D0
:104E0000911566E080E698E00E94EE1480912203FE
:104E100090912303892B09F4F9C060913E037091AE
:104E20003F0380914003909141030E943E13D1CEF5
:104E30008DE33CCF61E080912B030E94290861E063
:104E400080912C030E94290880912B03082E000CCE
:104E5000990BFC01EA52F74FE491F0E0EE0FFF1FCF
:104E6000EE58F74F2591349130933303209332035A
:104E7000FC01EB50F74FE491E093380380912C0351
:104E8000082E000C990BFC01EA52F74FE491F0E078
:104E9000EE0FFF1FEE58F74FA591B491B093350375
:104EA000A0933403FC01EB50F74FE491E0933903F6
:104EB0008C91E82BEC938091200390912103892B16
:104EC00009F434C01FB7F89480910102811127C002
:104ED000E7EEF8E08491E6E0F9E09491E82FF0E065
:104EE000EE0FFF1FEE5AF74FA591B491EC91E92315
:104EF00021F461E081E10E94FB0761E081E10E9411
:104F000029088CB580618CBD8CB580648CBD61E056
:104F10008FE00E94290861E080E10E9429088091C9
:104F200001028F5F809301021FBFD8CE61E08091A4
:104F300029030E94290861E080912A030E94290820
:104F400080912903082E000C990BFC01EA52F74FBF
:104F5000E491F0E0EE0FFF1FEE58F74F25913491EA
:104F600030932F0320932E03FC01EB50F74FE49175
:104F7000E093360380912A03082E000C990BFC0164
:104F8000EA52F74FE491F0E0EE0FFF1FEE58F74FB3
:104F9000A591B491B0933103A0933003FC01EB5081
:104FA000F74FE491E09337038C91E095E823EC937D
:104FB00095CE8091200390912103892B31F080912F
:104FC0004303909144030E94940BE0913403F091C9
:104FD0003503908180913903809589238083B1CEF8
:104FE0008FECE8CE8036910569F480910C039091A6
:104FF0000D03409739F480912703813029F480E133
:105000008093420312E0D9CE8FEAFACFE0913403C5
:10501000F0913503808190913903892B8083D9CD1C
:105020008A81813609F48AC18B818E3609F088C164
:1050300086E08D87CE0105960E940A138E8748E090
:1050400050E061EA78E0CE0101960E94552FCE0132
:1050500001960E940A138F87CE0104960E940A13BC
:10506000888BCE0107960E940A13898BCE010C967D
:105070000E94CD1762E08AE00E94290862E088E081
:105080000E94290862E08BE00E94290881E0809359
:105090001A0381E090E09093190380931803909392
:1050A00017038093160385E090E090931303809399
:1050B000120384E190E0909315038093140364E954
:1050C00078E086E093E00E94B40682E490E090935A
:1050D00013038093120380E390E090931503809371
:1050E000140369E878E086E093E00E94B4068EE459
:1050F00090E0909313038093120388E390E09093E1
:1051000015038093140360E878E086E093E00E9442
:10511000B4060E948D1660ED77E080E090E00E947A
:105120007F088091FD020E94EE150E949319109253
:105130002C0210922B02CE0101969B8B8A8B592C4C
:1051400055E0A52EB12C63E0262E312CCC24C3943F
:10515000D12C8BE00E94D2074C01892BC9F480919D
:10516000290290912A02019799F480912702909147
:1051700028020196833091050CF0FEC0909328021E
:105180008093270262E370E080E090E00E947F0855
:1051900090922A02809229020E948D168091D90055
:1051A00080FFEFC0AAE0B0E0B0930D01A0930C0126
:1051B0008BE00E94D207892B19F48FEA0E944016D7
:1051C0008091250290912602019660E177E20E948B
:1051D000C33390932602809325028DE493E00E94CE
:1051E0006A18982E8823C9F080914D0380FB99247A
:1051F00090F880FF12C0E0912D02F0912E02808184
:1052000091818230910509F44DC108F03FC10097AA
:1052100009F45FC1019709F44EC189E493E00E944B
:105220006A18882309F420C28091490380FB8824EE
:1052300080F880FF19C2E0912D02F0912E0280814A
:1052400091818230910509F485C108F047C100972A
:1052500009F480C1019709F455C185E493E00E94E7
:105260006A18882309F42AC28091450380FB992497
:1052700090F880FF23C2E0912D02F0912E028081F0
:1052800091818230910509F4FDC108F0EFC10097CA
:1052900009F40FC2019709F4FEC120912B0230914D
:1052A0002C022730310584F560902D0270902E027B
:1052B00061147104A9F0D3018D919C911197281765
:1052C000390711F1892B29F412968D919C910E9436
:1052D0008D34C3010E948D3410922E0210922D0243
:1052E00060902B0270902C02B2E06B16710409F4EE
:1052F000FAC108F0E5C16114710409F414C2F1E0C7
:105300006F16710409F4E6C10E949319E0912D0211
:10531000F0912E0280819181009709F456C2069780
:1053200010F45090F702511066C2911064C280E0F0
:1053300090E0892BF9F00E94000001CF81E079CE46
:1053400087E077CE82E075CE8B81823711F484E0DE
:1053500070CE88E06ECE8B81823711F483E069CE07
:1053600085E067CE89E065CE8AE063CE8BE061CED2
:105370008CE05FCE592CEDCE1092280210922702BD
:1053800001CF80910C0190910D01181619062CF493
:10539000019790930D0180930C01809125029091CB
:1053A0002602843699410CF40BCF64EF71E080E063
:1053B00090E00E947F08109226021092250210921F
:1053C0002A02109229028EEA0E94401680916400FF
:1053D00081608093640083B7817F846083BF83B7DB
:1053E000816083BFE0E0F9E09491E1EEF8E0849120
:1053F00020912402292B2093240220912302292B7F
:1054000020932302EFECF8E02491E22FF0E0EE0F7E
:10541000FF1FED5EFD4F2AE836E131832083E82F40
:10542000F0E0EE0FFF1FEA54F74FA591B4918C9175
:10543000809312024BE650E0509311024093100209
:1054400080916800816080936800E0911002F09183
:1054500011028081982B9083889583B7816083BFE8
:10546000889583B78E7F83BF83B78E7F83BF8FB7C7
:10547000F894E0E0F9E09491E1EEF8E094918FBFC8
:10548000809164008E7F809364009ACE8430910571
:10549000D1F088F0059709F0C0CE828190E00196A6
:1054A000B1010DC08091FC0291E089278093FC023C
:1054B0000E94BF1DB2CE828190E00196B5010E948C
:1054C000C3338283AACE828190E0019667E070E0C8
:1054D000F6CFD0922C02C0922B029FCE8430910541
:1054E00009F476C0A0F1059709F0B7CE8281823029
:1054F00089F18111B0C00E94EE151092FD020E9448
:10550000BF1DABCE8281843029F410922C02109200
:105510002B02A3CE813029F430922C0220922B0250
:105520009CCE811107C082E090E090932C02809382
:105530002B0293CE823019F484E090E0F6CF8330D2
:1055400009F08BCEB0922C02A0922B0286CE8281E3
:10555000843029F4D0922C02C0922B027ECE30915E
:10556000F3022091F402811118C0832F90E001967C
:1055700068E170E00E94C333382F3093F302209328
:10558000F4021092F50281E08093F6028093F70214
:1055900080EF92E00E94CD1760CE813049F4822FD7
:1055A00090E001966CE370E00E94C333282FE5CFB2
:1055B000823021F4332341F03150DFCF8330E9F6DC
:1055C000222321F02150D9CF37E1D7CF2BE3D5CFFC
:1055D0008281863009F4BECF2091F00230E0205362
:1055E000384F5091F1024091F202823029F42F5F3E
:1055F0003F4F205D374008C0853069F421503109A4
:105600002F3CF7E03F07A9F72093F0025093F102F7
:105610004093F202B8CF813039F4852F6CE00E94BC
:10562000B73351E0590FE5CF843029F4513009F4F4
:1056300085C35150DECF811107C0842F6FE10E94D6
:10564000B73341E0490FD5CF833099F6413009F4A3
:1056500077C34150CECF813009F0FFCD0E94EE15C7
:1056600081E08093FD024BCF892CF7CD84309105EA
:10567000D1F088F0059709F010CE82818150990B06
:10568000B1010DC08091FC0291E089278093FC025A
:105690000E94BF1D02CE82818150990BB5010E94EC
:1056A000C3338283FACD82818150990B67E070E029
:1056B000F6CFD0922C02C0922B02EFCD982CEDCDDC
:1056C00024E06216710431F1D0F045E064167104F3
:1056D00009F01ACE83E090E00E94F133DC011196CC
:1056E0007C926E9214C082E090E00E94F133FC0143
:1056F0007182608290932E0280932D0205CE83E00A
:1057000090E00E94F133DC0111963C922E921296A9
:105710001C92F0CF83E090E00E94F133FC01718293
:1057200060821282E7CF85E090E00E94F1333C0175
:10573000FC011182108213821282148285E090E0B3
:105740000E94F133FC0183E291E091838083128215
:1057500013821482D3011396FC93EE9312976091F7
:10576000F3028091FC02811103C06D3008F06C508F
:10577000F30182819381DC01ED91FC910190F08134
:10578000E02D4091F4020995F30184818093FE029B
:105790000E94BF1D6091F3028091FC02811103C041
:1057A0006D3008F06C50D30112968D919C91DC0104
:1057B000ED91FC910190F081E02D4091F40209956A
:1057C00070922E0260922D029FCD6091F302809123
:1057D000FC02811103C06D3008F06C50828193810E
:1057E000DC01ED91FC910280F381E02D4091F40207
:1057F0000995552453940E94631D80902D0290902A
:105800002E02F401808191818230910509F4BBC0A0
:1058100050F4009709F486C2019709F459C00E9418
:105820008D16952C84CD8430910509F4A4C108F41B
:10583000EEC00597A1F78AE299E00E94221C9DE044
:10584000692E712C412CB0921303A0921203709216
:10585000150360921403F401828148124DC2109224
:10586000170310921603D0921903C0921803EE2466
:10587000E394F12C09E010E020E830E0A30141506E
:10588000510970E060E086E093E00E947F0FF1E054
:105890004F1609F43AC222E064E179E0421661F061
:1058A0008091FD02811106C067E279E086E093E015
:1058B0000E94B40660E279E086E093E00E94B406BC
:1058C00043943AE0630E711C43E04412BCCFA7CF6F
:1058D0008CEA99E00E94221C2DE0622E712C412C52
:1058E000B0921303A09212037092150360921403F6
:1058F000D40112968C91481227C01092170310926F
:105900001603D0921903C0921803EE24E394F12CED
:1059100009E010E020E830E0A3014150510970E0B7
:1059200060E086E093E00E947F0FB2E06AE879E0F1
:105930004B16E9F0B41588F0E1E063E979E04E1622
:10594000B1F06CE979E013C0D0921903C09218034A
:10595000D0921703C0921603E8CFF3E06BE779E02B
:105960004F1629F024E066E779E04212EACF86E09C
:1059700093E00E94B40643943AE0630E711C45E044
:105980004412AECF4CCF89E699E00E94221CD092FF
:105990001903C0921803D0921703C092160382E035
:1059A00080931A0388E290E090931303809312038C
:1059B00087E190E090931503809314038091FC029B
:1059C00064E679E0811102C06FE579E086E093E05A
:1059D0000E94B406B4E1EB2EF12C0BE310E024E1BD
:1059E00030E045E450E06FE070E080E490E00E9439
:1059F000521088E2E82EF12C28E230E045E450E035
:105A00006DE270E080E490E00E94521008CF86E5DD
:105A100099E00E94221C82E080931A03D09219031D
:105A2000C0921803D0921703C092160384E190E04D
:105A3000909313038093120387E190E090931503F2
:105A4000809314038091F4021F928F938091F3024C
:105A50001F928F938CE499E09F938F931F9289E01C
:105A60008F9381E090E08C0F9D1F9F938F930E94F6
:105A70005E2FEA89FB8901900020E9F73197AF0199
:105A8000AA89BB894A1B5B0BBE016F5F7F4F86E013
:105A900093E00E94D806F40122810FB6F894DEBF8D
:105AA0000FBECDBF223008F045C053E2259FC00194
:105AB00011248C01075E1F4FAC014D5D5F4FA4E1C7
:105AC000EA2EF12C24E130E06FE070E04E960E9467
:105AD0005210D40112968C91843009F043C0EE2408
